:020000040000FA
:0400000000000000FC
:040001003F8000003C
:040002003F8000003B
:040003003F8000003A
:040004003F80000039
:040005003F80000038
:040006003F80000037
:040007003F80000036
:040008003F80000035
:040009003F80000034
:04000A003F80000033
:04000B003F80000032
:04000C003F80000031
:04000D003F80000030
:04000E003F8000002F
:04000F003F8000002E
:040010003F8000002D
:040011003F8000002C
:040012003F8000002B
:040013003F8000002A
:040014003F80000029
:040015003F80000028
:040016003F80000027
:040017003F80000026
:040018003F80000025
:040019003F80000024
:04001A003F80000023
:04001B003F80000022
:04001C003F80000021
:04001D003F80000020
:04001E003F8000001F
:04001F003F8000001E
:040020003F8000001D
:040021003F8000001C
:040022003F8000001B
:040023003F8000001A
:040024003F80000019
:040025003F80000018
:040026003F80000017
:040027003F80000016
:040028003F80000015
:040029003F80000014
:04002A003F80000013
:04002B003F80000012
:04002C003F80000011
:04002D003F80000010
:04002E003F8000000F
:04002F003F8000000E
:040030003F8000000D
:040031003F8000000C
:040032003F8000000B
:040033003F8000000A
:040034003F80000009
:040035003F80000008
:040036003F80000007
:040037003F80000006
:040038003F80000005
:040039003F80000004
:04003A003F80000003
:04003B003F80000002
:04003C003F80000001
:04003D003F80000000
:04003E003F800000FF
:04003F003F800000FE
:040040003F800000FD
:040041003F800000FC
:040042003F800000FB
:040043003F800000FA
:040044003F800000F9
:040045003F800000F8
:040046003F800000F7
:040047003F800000F6
:040048003F800000F5
:040049003F800000F4
:04004A003F800000F3
:04004B003F800000F2
:04004C003F800000F1
:04004D003F800000F0
:04004E003F800000EF
:04004F003F800000EE
:040050003F800000ED
:040051003F800000EC
:040052003F800000EB
:040053003F800000EA
:040054003F800000E9
:040055003F800000E8
:040056003F800000E7
:040057003F800000E6
:040058003F800000E5
:040059003F800000E4
:04005A003F800000E3
:04005B003F800000E2
:04005C003F800000E1
:04005D003F800000E0
:04005E003F800000DF
:04005F003F800000DE
:040060003F800000DD
:040061003F800000DC
:040062003F800000DB
:040063003F800000DA
:040064003F800000D9
:040065003F800000D8
:040066003F800000D7
:040067003F800000D6
:040068003F800000D5
:040069003F800000D4
:04006A003F800000D3
:04006B003F800000D2
:04006C003F800000D1
:04006D003F800000D0
:04006E003F800000CF
:04006F003F800000CE
:040070003F800000CD
:040071003F800000CC
:040072003F800000CB
:040073003F800000CA
:040074003F800000C9
:040075003F800000C8
:040076003F800000C7
:040077003F800000C6
:040078003F800000C5
:040079003F800000C4
:04007A003F800000C3
:04007B003F800000C2
:04007C003F800000C1
:04007D003F800000C0
:04007E003F800000BF
:04007F003F800000BE
:040080003F31721882
:040081003F2F741584
:040082003F2D7A0391
:040083003F2B83D1BB
:040084003F2991710E
:040085003F27A2D49B
:040086003F25B7EB70
:040087003F23D0A99A
:040088003F21ED0027
:040089003F200CE127
:04008A003F1E3040A5
:04008B003F1C5711AE
:04008C003F1A814551
:04008D003F18AED298
:04008E003F16DFAB8F
:04008F003F1513C343
:040090003F134B11BE
:040091003F1185870F
:040092003F0FC31B3E
:040093003F0E03C257
:040094003F0C477264
:040095003F0A8E2070
:040096003F08D7C187
:040097003F07244CAF
:040098003F0573B7F6
:040099003F03C5F864
:04009A003F021B0600
:04009B003F0072D7D9
:04009C003EFD9AC5C6
:04009D003EFA553F93
:04009E003EF7150B09
:04009F003EF3DA163C
:0400A0003EF0A45139
:0400A1003EED73AA13
:0400A2003EEA4812D8
:0400A3003EE721799A
:0400A4003EE3FFCE6A
:0400A5003EE0E30353
:0400A6003EDDCB0967
:0400A7003EDAB7D0B6
:0400A8003ED7A94B4B
:0400A9003ED49F6A38
:0400AA003ED19A2089
:0400AB003ECE995F4D
:0400AC003ECB9D1A90
:0400AD003EC8A54361
:0400AE003EC5B1CDCD
:0400AF003EC2C2ACDF
:0400B0003EBFD7D2A6
:0400B1003EBCF1332D
:0400B2003EBA0EC480
:0400B3003EB73077AD
:0400B4003EB45642BE
:0400B5003EB18018C0
:0400B6003EAEADEFBE
:0400B7003EABDFBBC2
:0400B8003EA91570D8
:0400B9003EA64F050B
:0400BA003EA38C6E67
:0400BB003EA0CDA1F5
:0400BC003E9E1294BE
:0400BD003E9B5B3CCF
:0400BE003E98A78F32
:0400BF003E95F784EF
:0400C0003E934B110F
:0400C1003E90A22BA0
:0400C2003E8DFCCBA8
:0400C3003E8B5AE630
:0400C4003E88BC7442
:0400C5003E86216BE7
:0400C6003E8389C329
:0400C7003E80F5730F
:0400C8003E7CC8E3CF
:0400C9003E77AD6F62
:0400CA003E72987872
:0400CB003E6D89EE0F
:0400CC003E6881C049
:0400CD003E637FDE31
:0400CE003E5E843AD4
:0400CF003E598EC345
:0400D0003E549F6A91
:0400D1003E4FB620C8
:0400D2003E4AD2D7F9
:0400D3003E45F57F32
:0400D4003E411E0B80
:0400D5003E3C4C6CF5
:0400D6003E3780949D
:0400D7003E32BA7685
:0400D8003E2DFA03BC
:0400D9003E293F2F4E
:0400DA003E2489EC4B
:0400DB003E1FDA2DBD
:0400DC003E1B2FE6B2
:0400DD003E168B0838
:0400DE003E11EB895B
:0400DF003E0D515C25
:0400E0003E08BC74A6
:0400E1003E042CC6E7
:0400E2003DFF448A10
:0400E3003DF639CCE1
:0400E4003DED393B7A
:0400E5003DE442C0F4
:0400E6003DDB564464
:0400E7003DD273B2E1
:0400E8003DC99AF381
:0400E9003DC0CBF15A
:0400EA003DB806987F
:0400EB003DAF4AD209
:0400EC003DA6988B0A
:0400ED003D9DEFAD99
:0400EE003D955025C7
:0400EF003D8CB9DFAC
:0400F0003D842CC659
:0400F1003D77518E78
:0400F2003D665B9E6E
:0400F3003D55779769
:0400F4003D44A55191
:0400F5003D33E4A80B
:0400F6003D233577FA
:0400F7003D12979986
:0400F8003D020AECCF
:0400F9003CE31E972F
:0400FA003CC2492992
:0400FB003CA1954946
:0400FC003C8102B38E
:0400FD003C4122451B
:0400FE003C0080AC96
:0400FF003B80402BD7
:0401000000000000FB
:04010100BB7F8055EB
:04010200BBFF0153EB
:04010300BC3EE23BE1
:04010400BC7E054672
:04010500BC9E752205
:04010600BCBDC8D8DC
:04010700BCDCFE015D
:04010800BCFC14D84F
:04010900BD0D86CCD6
:04010A00BD1CF43EE6
:04010B00BD2C52DDD8
:04010C00BD3BA2C88D
:04010D00BD4AE418EB
:04010E00BD5A16ECD4
:04010F00BD693B5C2F
:04011000BD785186DF
:04011100BD83ACC23C
:04011200BD8B29B7C1
:04011300BD929FB149
:04011400BD9A0EBDC5
:04011500BDA176E62C
:04011600BDA8D83A6E
:04011700BDB032C580
:04011800BDB7869455
:04011900BDBED3B3E1
:04011A00BDC61A2F15
:04011B00BDCD5A12EA
:04011C00BDD4936A51
:04011D00BDDBC6413F
:04011E00BDE2F2A4A8
:04011F00BDEA189F7E
:04012000BDF1383BBA
:04012100BDF851864E
:04012200BDFF648A2F
:04012300BE0338A936
:04012400BE06BBF464
:04012500BE0A3C2CA6
:04012600BE0DB957FA
:04012700BE11337959
:04012800BE14AA98BF
:04012900BE181EB925
:04012A00BE1B8FE188
:04012B00BE1EFE16E0
:04012C00BE22695B2B
:04012D00BE25D1B862
:04012E00BE29372F80
:04012F00BE2C99C782
:04013000BE2FF98461
:04013100BE33566A19
:04013200BE36B07FA6
:04013300BE3A07C801
:04013400BE3D5C4828
:04013500BE40AE0515
:04013600BE43FD03C4
:04013700BE4749472F
:04013800BE4A92D554
:04013900BE4DD9B12D
:04013A00BE511DE1B4
:04013B00BE545F68E7
:04013C00BE579E4AC2
:04013D00BE5ADA8D3F
:04013E00BE5E143459
:04013F00BE614B430F
:04014000BE647FBE5C
:04014100BE67B1AA3A
:04014200BE6AE10BA5
:04014300BE6E0DE59A
:04014400BE71383B15
:04014500BE74601311
:04014600BE77856E8D
:04014700BE7AA85381
:04014800BE7DC8C3ED
:04014900BE8073629F
:04014A00BE82012D43
:04014B00BE838DC31F
:04014C00BE8519272C
:04014D00BE86A35B6C
:04014E00BE882C60DB
:04014F00BE89B43879
:04015000BE8B3AE543
:04015100BE8CC06937
:04015200BE8E44C653
:04015300BE8FC7FD97
:04015400BE914A10FE
:04015500BE92CB018A
:04015600BE944AD138
:04015700BE95C98206
:04015800BE974716F1
:04015900BE98C38EFB
:04015A00BE9A3EED1E
:04015B00BE9BB9335B
:04015C00BE9D3263AF
:04015D00BE9EAA7D1B
:04015E00BEA021849A
:04015F00BEA197792D
:04016000BEA30C5ED0
:04016100BEA4803484
:04016200BEA5F2FD47
:04016300BEA764BA15
:04016400BEA8D56CF0
:04016500BEAA4516D3
:04016600BEABB3B9C0
:04016700BEAD2156B2
:04016800BEAE8DEEAC
:04016900BEAFF984A8
:04016A00BEB16418A6
:04016B00BEB2CDACA7
:04016C00BEB43641A6
:04016D00BEB59DD9A5
:04016E00BEB704759F
:04016F00BEB86A1795
:04017000BEB9CEC086
:04017100BEBB32716E
:04017200BEBC952B4F
:04017300BEBDF6F027
:04017400BEBF57C2F1
:04017500BEC0B7A1B0
:04017600BEC2168F60
:04017700BEC3748D02
:04017800BEC4D19C94
:04017900BEC62DBE13
:04017A00BEC788F480
:04017B00BEC8E33FD8
:04017C00BECA3CA11A
:04017D00BECB951A46
:04017E00BECCECAC5B
:04017F00BECE435855
:04018000BECF991F36
:04018100BED0EE03FB
:04018200BED24205A2
:04018300BED395252D
:04018400BED4E76599
:04018500BED638C6E4
:04018600BED7894A0D
:04018700BED8D8F016
:04018800BEDA27BCF8
:04018900BEDB75ADB7
:04018A00BEDCC2C550
:04018B00BEDE0F04C1
:04018C00BEDF5A6D0B
:04018D00BEE0A5002B
:04018E00BEE1EEBD23
:04018F00BEE337A7ED
:04019000BEE47FBE8C
:04019100BEE5C704FC
:04019200BEE70D783F
:04019300BEE8531D52
:04019400BEE997F435
:04019500BEEADBFDE6
:04019600BEEC1F3963
:04019700BEED61AAAE
:04019800BEEEA350C4
:04019900BEEFE42DA4
:04019A00BEF124414D
:04019B00BEF2638DC0
:04019C00BEF3A213F9
:04019D00BEF4DFD3FA
:04019E00BEF61CCFBE
:04019F00BEF7590648
:0401A000BEF8947B96
:0401A100BEF9CF2EA6
:0401A200BEFB092077
:0401A300BEFC42520A
:0401A400BEFD7AC45E
:0401A500BEFEB2796F
:0401A600BEFFE9703F
:0401A700BF008FD630
:0401A800BF012A95D4
:0401A900BF01C4F7D7
:0401AA00BF025EFD35
:0401AB00BF02F8A6F1
:0401AC00BF0391F309
:0401AD00BF042AE47D
:0401AE00BF04C37A4D
:0401AF00BF055BB677
:0401B000BF05F397FD
:0401B100BF068B1EDC
:0401B200BF07224C15
:0401B300BF07B921A8
:0401B400BF084F9D94
:0401B500BF08E5C1D9
:0401B600BF097B8D75
:0401B700BF0A110169
:0401B800BF0AA61FB5
:0401B900BF0B3AE559
:0401BA00BF0BCF5652
:0401BB00BF0C6370A2
:0401BC00BF0CF73647
:0401BD00BF0D8AA642
:0401BE00BF0E1DC192
:0401BF00BF0EB08837
:0401C000BF0F42FB30
:0401C100BF0FD51A7D
:0401C200BF1066E71D
:0401C300BF10F86011
:0401C400BF11898757
:0401C500BF121A5BF0
:0401C600BF12AADEDC
:0401C700BF133B1017
:0401C800BF13CAF1A6
:0401C900BF145A8085
:0401CA00BF14E9C0B5
:0401CB00BF1578B034
:0401CC00BF16074F04
:0401CD00BF1695A024
:0401CE00BF1723A292
:0401CF00BF17B15550
:0401D000BF183EBA5C
:0401D100BF18CBD0B8
:0401D200BF19589A5F
:0401D300BF19E51655
:0401D400BF1A714598
:0401D500BF1AFD2729
:0401D600BF1B88BE05
:0401D700BF1C14082D
:0401D800BF1C9F07A2
:0401D900BF1D29BA63
:0401DA00BF1DB4226F
:0401DB00BF1E3E40C5
:0401DC00BF1EC81367
:0401DD00BF1F519D52
:0401DE00BF1FDADC89
:0401DF00BF2063D208
:0401E000BF20EC7FD1
:0401E100BF2174E3E3
:0401E200BF21FCFF3E
:0401E300BF2284D3E0
:0401E400BF230C5ECB
:0401E500BF2393A2FF
:0401E600BF241A9F79
:0401E700BF24A1543C
:0401E800BF2527C345
:0401E900BF25ADEB96
:0401EA00BF2633CD2C
:0401EB00BF26B96A08
:0401EC00BF273EC12A
:0401ED00BF27C3D293
:0401EE00BF28489E40
:0401EF00BF28CD2632
:0401F000BF29516969
:0401F100BF29D568E5
:0401F200BF2A5923A4
:0401F300BF2ADC9BA8
:0401F400BF2B5FCFEF
:0401F500BF2BE2C07A
:0401F600BF2C656E47
:0401F700BF2CE7D959
:0401F800BF2D6A02AB
:0401F900BF2DEBEA41
:0401FA00BF2E6D8F18
:0401FB00BF2EEEF332
:0401FC00BF2F70158C
:0401FD00BF2FF0F729
:0401FE00BF30719805
:0401FF00BF30F1F824
:00000001ff
