:020000040000FA
:050000000000000001FA
:050001000000000001F9
:050002000000000001F8
:050003000000000001F7
:050004000000000001F6
:050005000000000001F5
:050006000000000001F4
:050007000000000001F3
:050008000000000001F2
:050009000000000001F1
:05000A000000000001F0
:05000B000000000001EF
:05000C000000000001EE
:05000D000000000001ED
:05000E000000000001EC
:05000F000000000001EB
:050010000000000001EA
:050011000000000001E9
:050012000000000001E8
:050013000000000001E7
:050014000000000001E6
:050015000000000001E5
:050016000000000001E4
:050017000000000001E3
:050018000000000001E2
:050019000000000001E1
:05001A000000000001E0
:05001B000000000001DF
:05001C000000000001DE
:05001D000000000001DD
:05001E000000000001DC
:05001F000000000001DB
:050020000000000001DA
:050021000000000001D9
:050022000000000001D8
:050023000000000001D7
:050024000000000001D6
:050025000000000001D5
:050026000000000001D4
:050027000000000001D3
:050028000000000001D2
:050029000000000001D1
:05002A000000000001D0
:05002B000000000001CF
:05002C000000000001CE
:05002D000000000001CD
:05002E000000000001CC
:05002F000000000001CB
:050030000000000001CA
:050031000000000001C9
:050032000000000001C8
:050033000000000001C7
:050034000000000001C6
:050035000000000001C5
:050036000000000001C4
:050037000000000001C3
:050038000000000001C2
:050039000000000001C1
:05003A000000000001C0
:05003B000000000001BF
:05003C000000000001BE
:05003D000000000001BD
:05003E000000000001BC
:05003F000000000001BB
:050040000000000001BA
:050041000000000001B9
:050042000000000001B8
:050043000000000001B7
:050044000000000001B6
:050045000000000001B5
:050046000000000001B4
:050047000000000001B3
:050048000000000001B2
:050049000000000001B1
:05004A000000000001B0
:05004B000000000001AF
:05004C000000000001AE
:05004D000000000001AD
:05004E000000000001AC
:05004F000000000001AB
:050050000000000001AA
:050051000000000001A9
:050052000000000001A8
:050053000000000001A7
:050054000000000001A6
:050055000000000001A5
:050056000000000001A4
:050057000000000001A3
:050058000000000001A2
:050059000000000001A1
:05005A000000000001A0
:05005B0000000000019F
:05005C0000000000019E
:05005D0000000000019D
:05005E0000000000019C
:05005F0000000000019B
:0500600000000000019A
:05006100000000000199
:05006200000000000198
:05006300000000000197
:05006400000000000196
:05006500000000000195
:05006600000000000194
:05006700000000000193
:05006800000000000192
:05006900000000000191
:05006A00000000000190
:05006B0000000000018F
:05006C0000000000018E
:05006D0000000000018D
:05006E0000000000018C
:05006F0000000000018B
:0500700000000000018A
:05007100000000000189
:05007200000000000188
:05007300000000000187
:05007400000000000186
:05007500000000000185
:05007600000000000184
:05007700000000000183
:05007800000000000182
:05007900000000000181
:05007A00000000000180
:05007B0000000000017F
:05007C0000000000017E
:05007D0000000000017D
:05007E0000000000017C
:05007F0000000000017B
:05008000080000000172
:0500810007F01FC08024
:0500820007E07E07E12C
:0500830007D11967938D
:0500840007C1F07C2023
:0500850007B301ECC10E
:0500860007A44C6AFD17
:050087000795CEB24117
:0500880007878787894E
:05008900077975B8FFC6
:05008A00076B981DAF9B
:05008B00075DED952F5B
:05008C0007507507514B
:05008D0007432D63DDB7
:05008E00073615A24237
:05008F0007292CC159F6
:05009000071C71C71DF3
:05009100070FE3C0723F
:05009200070381C0E13D
:0500930006F74AE266D9
:0500940006EB3E4531C2
:0500950006DF5B0F77A0
:0500960006D3A06D3B44
:0500970006C80D901CDD
:0500980006BCA1AF2928
:0500990006B15C06B396
:05009A0006A63BD81B87
:05009B00069B4069B561
:05009C000690690691C9
:05009D000685B4FE5FC2
:05009E00067B23A545CF
:05009F000670B453BA25
:0500A0000666666667BC
:0500A100065C393E047D
:0500A20006522C3F375F
:0500A30006483ED27585
:0500A400063E7063E858
:0500A5000634C0634DAC
:0500A600062B2E43DCD7
:0500A7000621B97C2CCC
:0500A800061861861935
:0500A900060F25DEAD8D
:0500AA00060606060732
:0500AB0005FD017F418D
:0500AC0005F417D0610E
:0500AD0005EB4882395B
:0500AE0005E293205F54
:0500AF0005D9F7390E30
:0500B00005D1745D198B
:0500B10005C90A1FD380
:0500B20005C0B81704B1
:0500B30005B87DDAD262
:0500B40005B05B05B181
:0500B50005A84F3456C0
:0500B60005A05A05A1A0
:0500B70005987B1A957D
:0500B8000590B21644A2
:0500B9000588FE9DC159
:0500BA000581605817EC
:0500BB000579D6EE35C9
:0500BC000572620AE676
:0500BD00056B015AC1B2
:0500BE000563B48C2174
:0500BF00055C7B4F15FC
:0500C0000555555557E0
:0500C100054E42523E15
:0500C200054741FAB9F9
:0500C300054054054159
:0500C40005397829CD8B
:0500C5000532AE21CB65
:0500C600052BF5A81553
:0500C70005254E78ED57
:0500C800051EB851ED1A
:0500C900051832F1FFF3
:0500CA000511BE1959EB
:0500CB00050B598977C7
:0500CC00050505050615
:0500CD0004FEC04FED30
:0500CE0004F88B2F3A3D
:0500CF0004F265692048
:0500D00004EC4EC4ED3C
:0500D10004E6470B07E7
:0500D20004E04E04E112
:0500D30004DA637CF972
:0500D40004D4873ECCBE
:0500D50004CEB916D7AE
:0500D60004C8F8D28C03
:0500D70004C346404D8A
:0500D80004BDA12F6929
:0500D90004B8097014D9
:0500DA0004B27ED361B9
:0500DB0004AD012B4102
:0500DC0004A7904A7A20
:0500DD0004A22C04A3A5
:0500DE00049CD42E215A
:0500DF000497889C213C
:0500E000049249249385
:0500E100048D159E27AF
:0500E2000487EDE04978
:0500E3000482D1C31BE3
:0500E400047DC11F7145
:0500E5000478BBCED140
:0500E6000473C1AB69C9
:0500E700046ED290132D
:0500E8000469EE584719
:0500E900046514E02491
:0500EA00046046046102
:0500EB00045B81A2513D
:0500EC000456C797DF78
:0500ED00045217C3835B
:0500EE00044D72044FF7
:0500EF000448D639D9D8
:0500F0000444444445F6
:0500F100043FBC0441C6
:0500F200043B3D5AFB38
:0500F3000436C82A25B7
:0500F40004325C53F032
:0500F500042DF9BB0B16
:0500F6000429A0429B5B
:0500F70004254FCE417D
:0500F800042108421183
:0500F900041CC9829304
:0500FA0004189374BD21
:0500FB00041465FDF78F
:0500FC00041041041195
:0500FD00040C246D4914
:0500FE00040810204180
:0500FF000404040405E7
:0501000003FFFFFFFFFB
:0501010003FC03FC03F8
:0501020003F80FE03FCF
:0501030003F423953F09
:0501040003F03F03EFD2
:0501050003EC621593FC
:0501060003E88CB3C802
:0501070003E4BEC88303
:0501080003E0F83E0FCA
:0501090003DD38FF08D2
:05010A0003D980F65F3F
:05010B0003D5D00F56E2
:05010C0003D226357D41
:05010D0003CE8354B293
:05010E0003CAE7591FC0
:05010F0003C7522F3B65
:0501100003C3C3C3C3DB
:0501110003C03C03BF28
:0501120003BCBADC7E15
:0501130003B9403B931D
:0501140003B5CC0ED67E
:0501150003B25E44632B
:0501160003AEF6CA96DD
:0501170003AB95900E02
:0501180003A83A83A7D3
:0501190003A4E5947F42
:05011A0003A196B1ED08
:05011B00039E4DCB879F
:05011C00039B0AD11F46
:05011D000397CDB2BF05
:05011E0003949660ABA4
:05011F00039164CB5FB9
:05012000038E38E38DA1
:05012100038B129A217E
:050122000387F1E03746
:050123000384D6A725AE
:050124000381C0E06F43
:05012500037EB07DD057
:05012600037BA571310F
:0501270003789FACB05D
:0501280003759F229702
:050129000372A3C56292
:05012A00036FAD87BA70
:05012B00036CBC5C77D1
:05012C000369D0369CC0
:05012D000366E9095A18
:05012E00036406C80D8A
:05012F00036129663A9E
:05013000035E50D793AF
:05013100035B7D0FF1EE
:050132000358AE035864
:050133000355E3A5F0F7
:0501340003531DEC0C5B
:0501350003505CCA2527
:05013600034DA034D9C7
:05013700034AE820EC82
:05013800034834834779
:0501390003458550F8AC
:05013A000342DA7F2EF4
:05013B00034034033F06
:05013C00033D91D2A17A
:05013D00033AF3E2EDBE
:05013E0003385A29DB23
:05013F000335C49D4AD8
:050140000333333332EC
:050141000330A5E1B14F
:05014200032E1C9F01CB
:05014300032B97617B16
:050144000329161F9ABB
:05014500032698CFF332
:0501460003241F6939CC
:050147000321A9E23FC5
:05014800031F3831F334
:05014900031CCA4F5D1C
:05014A00031A6031A55D
:05014B000317F9D00BC1
:05014C0003159721EDF1
:05014D000313381EBF82
:05014E000310DCBE15EA
:05014F00030E84F79788
:05015000030C30C30B9D
:050151000309E0184E57
:05015200030792EF55C8
:05015300030549402FE7
:05015400030303030298
:050155000300C0300BA7
:0501560002FE80BF9FC6
:0501570002FC44AA2A8D
:0501580002FA0BE82F84
:0501590002F7D672451B
:05015A0002F5A4411BA9
:05015B0002F3754D7672
:05015C0002F149902EA4
:05015D0002EF21023257
:05015E0002ECFB9C8592
:05015F0002EAD9583F3F
:0501600002E8BA2E8B3D
:0501610002E69E18A754
:0501620002E4850FE836
:0501630002E26F0DB384
:0501640002E05C0B81CC
:0501650002DE4C02DD8A
:0501660002DC3EED6724
:0501670002DA34C4CFF0
:0501680002D82D82D732
:0501690002D62921531C
:05016A0002D4279A29D0
:05016B0002D228E7505C
:05016C0002D02D02CFBE
:05016D0002CE33E6BFE5
:05016E0002CC3D8D49AB
:05016F0002CA49F0A7DF
:0501700002C8590B213B
:0501710002C66AD71070
:0501720002C47F4EDF16
:0501730002C2966D05BB
:0501740002C0B02C0ADE
:0501750002BECC8684EF
:0501760002BCEB77194B
:0501770002BB0CF87D45
:0501780002B931057120
:0501790002B75798C811
:05017A0002B580AD5F3D
:05017B0002B3AC3E23BD
:05017C0002B1DA460F9C
:05017D0002B00AC02AD7
:05017E0002AE3DA7895F
:05017F0002AC72F74F15
:0501800002AAAAAAAAD0
:0501810002A8E4BCD758
:0501820002A721291D68
:0501830002A55FEAD4B3
:0501840002A3A0FD5BD9
:0501850002A1E45C2171
:0501860002A02A029F07
:05018700029E71EC5B1B
:05018800029CBC14E51F
:05018900029B0877DB7A
:05018A0002995710E48A
:05018B000297A7DBB4A0
:05018C000295FAD40900
:05018D0002944FF5AEE5
:05018E000292A73C7580
:05018F00029100A43FF5
:05019000028F5C28F560
:05019100028DB9C68AD1
:05019200028C1978FE4B
:05019300028A7B3C58CC
:050194000288DF0CAB46
:05019500028744E6159D
:050196000285ACC4BAB3
:05019700028416A4CB58
:05019800028282828159
:050199000280F05A2174
:05019A00027F6027F563
:05019B00027DD1E854D3
:05019C00027C45979B69
:05019D00027ABB3234C0
:05019E00027932B48F6C
:05019F000277AC1B23F8
:0501A0000276276275E4
:0501A1000274A4870EAA
:0501A2000273238582B9
:0501A3000271A45A6C7A
:0501A400027027026F4C
:0501A500026EAB7A3888
:0501A600026D31BE7B7B
:0501A700026BB9CBF36F
:0501A800026A439F659F
:0501A9000268CF359B48
:0501AA0002675C8B6A96
:0501AB000265EB9DACB4
:0501AC0002647C6945BE
:0501AD0002630EEB1CD3
:0501AE000261A3202501
:0501AF00026039055754
:0501B000025ED097B3D0
:0501B100025D69D43F6E
:0501B200025C04B80925
:0501B300025AA14025E5
:0501B40002593F69AF94
:0501B5000257DF31CA12
:0501B600025680959F38
:0501B700025523925DDA
:0501B8000253C8253BC5
:0501B90002526E4B76BE
:0501BA00025116025085
:0501BB00024FBF4713D5
:0501BC00024E6A170F5E
:0501BD00024D166F9ACF
:0501BE00024BC44E0FCE
:0501BF00024A73AFD1FC
:0501C0000249249248F1
:0501C1000247D6F2E246
:0501C20002468ACF1285
:0501C300024540245339
:0501C4000243F6F023E8
:0501C5000242AF30080A
:0501C600024168E18C1C
:0501C700024024023F8C
:0501C800023EE08FB7CC
:0501C900023D9E878F3E
:0501CA00023C5DE76747
:0501CB00023B1EACE543
:0501CC000239E0D5B38B
:0501CD000238A45F836D
:0501CE0002376948083A
:0501CF0002362F8CFD3B
:0501D0000234F72C22AF
:0501D1000233C0233BD6
:0501D20002328A7011E9
:0501D30002315610711D
:0501D400023023022FA0
:0501D500022EF143239E
:0501D600022DC0D1273D
:0501D700022C91AA1F9B
:0501D800022B63CBEED9
:0501D900022A37347F0B
:0501DA0002290BE1C049
:0501DB000227E1D1A59F
:0501DC000226B9022615
:0501DD00022591713DB7
:0501DE0002246B1CEB84
:0501DF00022346033479
:0501E000022222222191
:0501E1000220FF77BFC2
:0501E200021FDE021FF8
:0501E300021EBDBF5526
:0501E400021D9EAD7C30
:0501E500021C80CAAFFE
:0501E600021B6415116D
:0501E700021A488AC65F
:0501E80002192E29F7A9
:0501E900021814F0D122
:0501EA000216FCDD849B
:0501EB000215E5EE45E0
:0501EC000214D0214CBB
:0501ED000213BB74D5F4
:0501EE000212A7E71F4B
:0501EF00021195766E7F
:0501F00002108421074C
:0501F100020F73E5366A
:0501F200020E64C1488B
:0501F300020D56B38E61
:0501F400020C49BA5D98
:0501F500020B3DD40DDA
:0501F600020A32FEFACE
:0501F700020929398214
:0501F80002082082074F
:0501F900020718D6EF1B
:0501FA0002061236A30D
:0501FB0002050C9F8EBF
:0501FC00020408101FC1
:0501FD0002030486C9A5
:0501FE000202020201F3
:0501FF00020100803F39
:00000001ff
